{
  "_format": "hh-sol-artifact-1",
  "contractName": "StressCapital",
  "sourceName": "src/contracts/flattened.sol",
  "abi": [
    {
      "inputs": [
        {
          "internalType": "string",
          "name": "_name",
          "type": "string"
        },
        {
          "internalType": "string",
          "name": "_symbol",
          "type": "string"
        },
        {
          "internalType": "string",
          "name": "_initBaseURI",
          "type": "string"
        }
      ],
      "stateMutability": "nonpayable",
      "type": "constructor"
    },
    {
      "anonymous": false,
      "inputs": [
        {
          "indexed": true,
          "internalType": "address",
          "name": "owner",
          "type": "address"
        },
        {
          "indexed": true,
          "internalType": "address",
          "name": "approved",
          "type": "address"
        },
        {
          "indexed": true,
          "internalType": "uint256",
          "name": "tokenId",
          "type": "uint256"
        }
      ],
      "name": "Approval",
      "type": "event"
    },
    {
      "anonymous": false,
      "inputs": [
        {
          "indexed": true,
          "internalType": "address",
          "name": "owner",
          "type": "address"
        },
        {
          "indexed": true,
          "internalType": "address",
          "name": "operator",
          "type": "address"
        },
        {
          "indexed": false,
          "internalType": "bool",
          "name": "approved",
          "type": "bool"
        }
      ],
      "name": "ApprovalForAll",
      "type": "event"
    },
    {
      "anonymous": false,
      "inputs": [
        {
          "indexed": true,
          "internalType": "address",
          "name": "previousOwner",
          "type": "address"
        },
        {
          "indexed": true,
          "internalType": "address",
          "name": "newOwner",
          "type": "address"
        }
      ],
      "name": "OwnershipTransferred",
      "type": "event"
    },
    {
      "anonymous": false,
      "inputs": [
        {
          "indexed": false,
          "internalType": "uint256",
          "name": "id",
          "type": "uint256"
        },
        {
          "indexed": true,
          "internalType": "address",
          "name": "buyer",
          "type": "address"
        },
        {
          "indexed": false,
          "internalType": "uint256",
          "name": "cost",
          "type": "uint256"
        },
        {
          "indexed": true,
          "internalType": "string",
          "name": "tokenURI",
          "type": "string"
        },
        {
          "indexed": false,
          "internalType": "uint256",
          "name": "timestamp",
          "type": "uint256"
        }
      ],
      "name": "Sale",
      "type": "event"
    },
    {
      "anonymous": false,
      "inputs": [
        {
          "indexed": true,
          "internalType": "address",
          "name": "from",
          "type": "address"
        },
        {
          "indexed": true,
          "internalType": "address",
          "name": "to",
          "type": "address"
        },
        {
          "indexed": true,
          "internalType": "uint256",
          "name": "tokenId",
          "type": "uint256"
        }
      ],
      "name": "Transfer",
      "type": "event"
    },
    {
      "inputs": [
        {
          "internalType": "address",
          "name": "to",
          "type": "address"
        },
        {
          "internalType": "uint256",
          "name": "tokenId",
          "type": "uint256"
        }
      ],
      "name": "approve",
      "outputs": [],
      "stateMutability": "nonpayable",
      "type": "function"
    },
    {
      "inputs": [
        {
          "internalType": "address",
          "name": "owner",
          "type": "address"
        }
      ],
      "name": "balanceOf",
      "outputs": [
        {
          "internalType": "uint256",
          "name": "",
          "type": "uint256"
        }
      ],
      "stateMutability": "view",
      "type": "function"
    },
    {
      "inputs": [],
      "name": "baseExtension",
      "outputs": [
        {
          "internalType": "string",
          "name": "",
          "type": "string"
        }
      ],
      "stateMutability": "view",
      "type": "function"
    },
    {
      "inputs": [],
      "name": "baseImage",
      "outputs": [
        {
          "internalType": "string",
          "name": "",
          "type": "string"
        }
      ],
      "stateMutability": "view",
      "type": "function"
    },
    {
      "inputs": [],
      "name": "cost",
      "outputs": [
        {
          "internalType": "uint256",
          "name": "",
          "type": "uint256"
        }
      ],
      "stateMutability": "view",
      "type": "function"
    },
    {
      "inputs": [],
      "name": "getAllNFTs",
      "outputs": [
        {
          "components": [
            {
              "internalType": "uint256",
              "name": "id",
              "type": "uint256"
            },
            {
              "internalType": "address",
              "name": "buyer",
              "type": "address"
            },
            {
              "internalType": "uint256",
              "name": "cost",
              "type": "uint256"
            },
            {
              "internalType": "string",
              "name": "imageURL",
              "type": "string"
            },
            {
              "internalType": "uint256",
              "name": "timestamp",
              "type": "uint256"
            }
          ],
          "internalType": "struct StressCapital.SaleStruct[]",
          "name": "",
          "type": "tuple[]"
        }
      ],
      "stateMutability": "view",
      "type": "function"
    },
    {
      "inputs": [
        {
          "internalType": "uint256",
          "name": "tokenId",
          "type": "uint256"
        }
      ],
      "name": "getAnNFTs",
      "outputs": [
        {
          "components": [
            {
              "internalType": "uint256",
              "name": "id",
              "type": "uint256"
            },
            {
              "internalType": "address",
              "name": "buyer",
              "type": "address"
            },
            {
              "internalType": "uint256",
              "name": "cost",
              "type": "uint256"
            },
            {
              "internalType": "string",
              "name": "imageURL",
              "type": "string"
            },
            {
              "internalType": "uint256",
              "name": "timestamp",
              "type": "uint256"
            }
          ],
          "internalType": "struct StressCapital.SaleStruct",
          "name": "",
          "type": "tuple"
        }
      ],
      "stateMutability": "view",
      "type": "function"
    },
    {
      "inputs": [
        {
          "internalType": "uint256",
          "name": "tokenId",
          "type": "uint256"
        }
      ],
      "name": "getApproved",
      "outputs": [
        {
          "internalType": "address",
          "name": "",
          "type": "address"
        }
      ],
      "stateMutability": "view",
      "type": "function"
    },
    {
      "inputs": [
        {
          "internalType": "address",
          "name": "owner",
          "type": "address"
        },
        {
          "internalType": "address",
          "name": "operator",
          "type": "address"
        }
      ],
      "name": "isApprovedForAll",
      "outputs": [
        {
          "internalType": "bool",
          "name": "",
          "type": "bool"
        }
      ],
      "stateMutability": "view",
      "type": "function"
    },
    {
      "inputs": [],
      "name": "maxSupply",
      "outputs": [
        {
          "internalType": "uint256",
          "name": "",
          "type": "uint256"
        }
      ],
      "stateMutability": "view",
      "type": "function"
    },
    {
      "inputs": [],
      "name": "name",
      "outputs": [
        {
          "internalType": "string",
          "name": "",
          "type": "string"
        }
      ],
      "stateMutability": "view",
      "type": "function"
    },
    {
      "inputs": [],
      "name": "owner",
      "outputs": [
        {
          "internalType": "address",
          "name": "",
          "type": "address"
        }
      ],
      "stateMutability": "view",
      "type": "function"
    },
    {
      "inputs": [
        {
          "internalType": "uint256",
          "name": "tokenId",
          "type": "uint256"
        }
      ],
      "name": "ownerOf",
      "outputs": [
        {
          "internalType": "address",
          "name": "",
          "type": "address"
        }
      ],
      "stateMutability": "view",
      "type": "function"
    },
    {
      "inputs": [],
      "name": "paused",
      "outputs": [
        {
          "internalType": "bool",
          "name": "",
          "type": "bool"
        }
      ],
      "stateMutability": "view",
      "type": "function"
    },
    {
      "inputs": [
        {
          "internalType": "address",
          "name": "to",
          "type": "address"
        },
        {
          "internalType": "uint256",
          "name": "amount",
          "type": "uint256"
        }
      ],
      "name": "payTo",
      "outputs": [],
      "stateMutability": "nonpayable",
      "type": "function"
    },
    {
      "inputs": [],
      "name": "payToMint",
      "outputs": [],
      "stateMutability": "payable",
      "type": "function"
    },
    {
      "inputs": [],
      "name": "renounceOwnership",
      "outputs": [],
      "stateMutability": "nonpayable",
      "type": "function"
    },
    {
      "inputs": [
        {
          "internalType": "address",
          "name": "from",
          "type": "address"
        },
        {
          "internalType": "address",
          "name": "to",
          "type": "address"
        },
        {
          "internalType": "uint256",
          "name": "tokenId",
          "type": "uint256"
        }
      ],
      "name": "safeTransferFrom",
      "outputs": [],
      "stateMutability": "nonpayable",
      "type": "function"
    },
    {
      "inputs": [
        {
          "internalType": "address",
          "name": "from",
          "type": "address"
        },
        {
          "internalType": "address",
          "name": "to",
          "type": "address"
        },
        {
          "internalType": "uint256",
          "name": "tokenId",
          "type": "uint256"
        },
        {
          "internalType": "bytes",
          "name": "data",
          "type": "bytes"
        }
      ],
      "name": "safeTransferFrom",
      "outputs": [],
      "stateMutability": "nonpayable",
      "type": "function"
    },
    {
      "inputs": [
        {
          "internalType": "address",
          "name": "operator",
          "type": "address"
        },
        {
          "internalType": "bool",
          "name": "approved",
          "type": "bool"
        }
      ],
      "name": "setApprovalForAll",
      "outputs": [],
      "stateMutability": "nonpayable",
      "type": "function"
    },
    {
      "inputs": [
        {
          "internalType": "string",
          "name": "_newBaseURI",
          "type": "string"
        }
      ],
      "name": "setBaseURI",
      "outputs": [],
      "stateMutability": "nonpayable",
      "type": "function"
    },
    {
      "inputs": [
        {
          "internalType": "bool",
          "name": "_state",
          "type": "bool"
        }
      ],
      "name": "setPause",
      "outputs": [],
      "stateMutability": "nonpayable",
      "type": "function"
    },
    {
      "inputs": [
        {
          "internalType": "bytes4",
          "name": "interfaceId",
          "type": "bytes4"
        }
      ],
      "name": "supportsInterface",
      "outputs": [
        {
          "internalType": "bool",
          "name": "",
          "type": "bool"
        }
      ],
      "stateMutability": "view",
      "type": "function"
    },
    {
      "inputs": [],
      "name": "symbol",
      "outputs": [
        {
          "internalType": "string",
          "name": "",
          "type": "string"
        }
      ],
      "stateMutability": "view",
      "type": "function"
    },
    {
      "inputs": [
        {
          "internalType": "uint256",
          "name": "index",
          "type": "uint256"
        }
      ],
      "name": "tokenByIndex",
      "outputs": [
        {
          "internalType": "uint256",
          "name": "",
          "type": "uint256"
        }
      ],
      "stateMutability": "view",
      "type": "function"
    },
    {
      "inputs": [
        {
          "internalType": "address",
          "name": "owner",
          "type": "address"
        },
        {
          "internalType": "uint256",
          "name": "index",
          "type": "uint256"
        }
      ],
      "name": "tokenOfOwnerByIndex",
      "outputs": [
        {
          "internalType": "uint256",
          "name": "",
          "type": "uint256"
        }
      ],
      "stateMutability": "view",
      "type": "function"
    },
    {
      "inputs": [
        {
          "internalType": "uint256",
          "name": "tokenId",
          "type": "uint256"
        }
      ],
      "name": "tokenURI",
      "outputs": [
        {
          "internalType": "string",
          "name": "",
          "type": "string"
        }
      ],
      "stateMutability": "view",
      "type": "function"
    },
    {
      "inputs": [],
      "name": "totalSupply",
      "outputs": [
        {
          "internalType": "uint256",
          "name": "",
          "type": "uint256"
        }
      ],
      "stateMutability": "view",
      "type": "function"
    },
    {
      "inputs": [
        {
          "internalType": "address",
          "name": "from",
          "type": "address"
        },
        {
          "internalType": "address",
          "name": "to",
          "type": "address"
        },
        {
          "internalType": "uint256",
          "name": "tokenId",
          "type": "uint256"
        }
      ],
      "name": "transferFrom",
      "outputs": [],
      "stateMutability": "nonpayable",
      "type": "function"
    },
    {
      "inputs": [
        {
          "internalType": "address",
          "name": "newOwner",
          "type": "address"
        }
      ],
      "name": "transferOwnership",
      "outputs": [],
      "stateMutability": "nonpayable",
      "type": "function"
    }
  ],
  "bytecode": "0x60c06040526005608090815264173539b7b760d91b60a052600c906200002690826200025d565b5060408051808201909152600581526402e776562760dc1b6020820152600d906200005290826200025d565b5066038d7ea4c68000600e556063600f556010805460ff1916905534801562000079575f80fd5b5060405162002a5338038062002a538339810160408190526200009c91620003cf565b82825f620000ab83826200025d565b506001620000ba82826200025d565b505050620000d7620000d1620000eb60201b60201c565b620000ef565b620000e28162000140565b5050506200045a565b3390565b600a80546001600160a01b038381166001600160a01b0319831681179093556040519116919082907f8be0079c531659141344cd1fd0a4f28419497f9722a3daafe3b4186f6b6457e0905f90a35050565b6200014a6200015c565b600b6200015882826200025d565b5050565b600a546001600160a01b03163314620001bb5760405162461bcd60e51b815260206004820181905260248201527f4f776e61626c653a2063616c6c6572206973206e6f7420746865206f776e6572604482015260640160405180910390fd5b565b634e487b7160e01b5f52604160045260245ffd5b600181811c90821680620001e657607f821691505b6020821081036200020557634e487b7160e01b5f52602260045260245ffd5b50919050565b601f82111562000258575f81815260208120601f850160051c81016020861015620002335750805b601f850160051c820191505b8181101562000254578281556001016200023f565b5050505b505050565b81516001600160401b03811115620002795762000279620001bd565b62000291816200028a8454620001d1565b846200020b565b602080601f831160018114620002c7575f8415620002af5750858301515b5f19600386901b1c1916600185901b17855562000254565b5f85815260208120601f198616915b82811015620002f757888601518255948401946001909101908401620002d6565b50858210156200031557878501515f19600388901b60f8161c191681555b5050505050600190811b01905550565b5f82601f83011262000335575f80fd5b81516001600160401b0380821115620003525762000352620001bd565b604051601f8301601f19908116603f011681019082821181831017156200037d576200037d620001bd565b8160405283815260209250868385880101111562000399575f80fd5b5f91505b83821015620003bc57858201830151818301840152908201906200039d565b5f93810190920192909252949350505050565b5f805f60608486031215620003e2575f80fd5b83516001600160401b0380821115620003f9575f80fd5b620004078783880162000325565b945060208601519150808211156200041d575f80fd5b6200042b8783880162000325565b9350604086015191508082111562000441575f80fd5b50620004508682870162000325565b9150509250925092565b6125eb80620004685f395ff3fe6080604052600436106101c5575f3560e01c806368ef9d3c116100f2578063b88d4fde11610092578063d5abeb0111610062578063d5abeb01146104db578063e0391b09146104f0578063e985e9c514610511578063f2fde38b14610558575f80fd5b8063b88d4fde1461046a578063bedb86fb14610489578063c6682862146104a8578063c87b56dd146104bc575f80fd5b80637bf08621116100cd5780637bf08621146103fb5780638da5cb5b1461041a57806395d89b4114610437578063a22cb4651461044b575f80fd5b806368ef9d3c1461039c57806370a08231146103c8578063715018a6146103e7575f80fd5b806323b872dd11610168578063509c718011610138578063509c71801461033d57806355f804b3146103455780635c975abb146103645780636352211e1461037d575f80fd5b806323b872dd146102c15780632f745c59146102e057806342842e0e146102ff5780634f6ccce71461031e575f80fd5b8063081812fc116101a3578063081812fc14610232578063095ea7b31461026957806313faede61461028a57806318160ddd146102ad575f80fd5b806301ffc9a7146101c957806303b0f38d146101fd57806306fdde031461021e575b5f80fd5b3480156101d4575f80fd5b506101e86101e3366004611e77565b610577565b60405190151581526020015b60405180910390f35b348015610208575f80fd5b506102116105a1565b6040516101f49190611edf565b348015610229575f80fd5b5061021161062d565b34801561023d575f80fd5b5061025161024c366004611ef1565b6106bc565b6040516001600160a01b0390911681526020016101f4565b348015610274575f80fd5b50610288610283366004611f23565b6106e1565b005b348015610295575f80fd5b5061029f600e5481565b6040519081526020016101f4565b3480156102b8575f80fd5b5060085461029f565b3480156102cc575f80fd5b506102886102db366004611f4b565b6107fa565b3480156102eb575f80fd5b5061029f6102fa366004611f23565b61082b565b34801561030a575f80fd5b50610288610319366004611f4b565b6108bf565b348015610329575f80fd5b5061029f610338366004611ef1565b6108d9565b610288610969565b348015610350575f80fd5b5061028861035f36600461200b565b610ba7565b34801561036f575f80fd5b506010546101e89060ff1681565b348015610388575f80fd5b50610251610397366004611ef1565b610bbf565b3480156103a7575f80fd5b506103bb6103b6366004611ef1565b610c1e565b6040516101f4919061209e565b3480156103d3575f80fd5b5061029f6103e23660046120b0565b610dbb565b3480156103f2575f80fd5b50610288610e3f565b348015610406575f80fd5b50610288610415366004611f23565b610e52565b348015610425575f80fd5b50600a546001600160a01b0316610251565b348015610442575f80fd5b50610211610f73565b348015610456575f80fd5b506102886104653660046120d8565b610f82565b348015610475575f80fd5b50610288610484366004612109565b610f8d565b348015610494575f80fd5b506102886104a3366004612180565b610fc5565b3480156104b3575f80fd5b50610211610fe0565b3480156104c7575f80fd5b506102116104d6366004611ef1565b610fed565b3480156104e6575f80fd5b5061029f600f5481565b3480156104fb575f80fd5b506105046110c7565b6040516101f49190612199565b34801561051c575f80fd5b506101e861052b3660046121f9565b6001600160a01b039182165f90815260056020908152604080832093909416825291909152205460ff1690565b348015610563575f80fd5b506102886105723660046120b0565b6111e9565b5f6001600160e01b0319821663780e9d6360e01b148061059b575061059b82611262565b92915050565b600d80546105ae90612221565b80601f01602080910402602001604051908101604052809291908181526020018280546105da90612221565b80156106255780601f106105fc57610100808354040283529160200191610625565b820191905f5260205f20905b81548152906001019060200180831161060857829003601f168201915b505050505081565b60605f805461063b90612221565b80601f016020809104026020016040519081016040528092919081815260200182805461066790612221565b80156106b25780601f10610689576101008083540402835291602001916106b2565b820191905f5260205f20905b81548152906001019060200180831161069557829003601f168201915b5050505050905090565b5f6106c6826112b1565b505f908152600460205260409020546001600160a01b031690565b5f6106eb82610bbf565b9050806001600160a01b0316836001600160a01b03160361075d5760405162461bcd60e51b815260206004820152602160248201527f4552433732313a20617070726f76616c20746f2063757272656e74206f776e656044820152603960f91b60648201526084015b60405180910390fd5b336001600160a01b03821614806107795750610779813361052b565b6107eb5760405162461bcd60e51b815260206004820152603d60248201527f4552433732313a20617070726f76652063616c6c6572206973206e6f7420746f60448201527f6b656e206f776e6572206f7220617070726f76656420666f7220616c6c0000006064820152608401610754565b6107f5838361130f565b505050565b610804338261137c565b6108205760405162461bcd60e51b815260040161075490612259565b6107f58383836113f9565b5f61083583610dbb565b82106108975760405162461bcd60e51b815260206004820152602b60248201527f455243373231456e756d657261626c653a206f776e657220696e646578206f7560448201526a74206f6620626f756e647360a81b6064820152608401610754565b506001600160a01b03919091165f908152600660209081526040808320938352929052205490565b6107f583838360405180602001604052805f815250610f8d565b5f6108e360085490565b82106109465760405162461bcd60e51b815260206004820152602c60248201527f455243373231456e756d657261626c653a20676c6f62616c20696e646578206f60448201526b7574206f6620626f756e647360a01b6064820152608401610754565b60088281548110610959576109596122a6565b905f5260205f2001549050919050565b5f61097360085490565b60105490915060ff16156109c95760405162461bcd60e51b815260206004820152601760248201527f4e46547320756e646572206d61696e74656e616e6365210000000000000000006044820152606401610754565b600f548110610a245760405162461bcd60e51b815260206004820152602160248201527f536f7272792c20616c6c204e4654732068617665206265656e206d696e7465646044820152602160f81b6064820152608401610754565b600e54341015610a765760405162461bcd60e51b815260206004820152601a60248201527f457468657220746f6f206c6f7720666f72206d696e74696e67210000000000006044820152606401610754565b610a8a33610a858360016122ce565b611568565b60116040518060a00160405280836001610aa491906122ce565b8152336020820152346040820152606001610ac8610ac38560016122ce565b611581565b8152426020918201528254600180820185555f9485529382902083516005909202019081559082015192810180546001600160a01b0319166001600160a01b03909416939093179092556040810151600283015560608101519091906003820190610b33908261232e565b5060809190910151600490910155610b4f6104d68260016122ce565b604051610b5c91906123ea565b6040805191829003822083835234602084015242838301529051909133917fb9508407a6eccb191d8da3286f4173697cf95604e9ea192fe5ab7c862b5221f69181900360600190a350565b610baf6115c8565b600b610bbb828261232e565b5050565b5f818152600260205260408120546001600160a01b03168061059b5760405162461bcd60e51b8152602060048201526018602482015277115490cdcc8c4e881a5b9d985b1a59081d1bdad95b88125160421b6044820152606401610754565b610c556040518060a001604052805f81526020015f6001600160a01b031681526020015f8152602001606081526020015f81525090565b5f82118015610c6657506011548211155b610ca55760405162461bcd60e51b815260206004820152601060248201526f125b9d985b1a59081d1bdad95b88125160821b6044820152606401610754565b6011610cb2600184612405565b81548110610cc257610cc26122a6565b905f5260205f2090600502016040518060a00160405290815f8201548152602001600182015f9054906101000a90046001600160a01b03166001600160a01b03166001600160a01b0316815260200160028201548152602001600382018054610d2a90612221565b80601f0160208091040260200160405190810160405280929190818152602001828054610d5690612221565b8015610da15780601f10610d7857610100808354040283529160200191610da1565b820191905f5260205f20905b815481529060010190602001808311610d8457829003601f168201915b505050505081526020016004820154815250509050919050565b5f6001600160a01b038216610e245760405162461bcd60e51b815260206004820152602960248201527f4552433732313a2061646472657373207a65726f206973206e6f7420612076616044820152683634b21037bbb732b960b91b6064820152608401610754565b506001600160a01b03165f9081526003602052604090205490565b610e476115c8565b610e505f611622565b565b610e5a6115c8565b6001600160a01b038216610ea25760405162461bcd60e51b815260206004820152600f60248201526e496e76616c6964206164647265737360881b6044820152606401610754565b5f8111610ee25760405162461bcd60e51b815260206004820152600e60248201526d125b9d985b1a5908185b5bdd5b9d60921b6044820152606401610754565b5f826001600160a01b0316826040515f6040518083038185875af1925050503d805f8114610f2b576040519150601f19603f3d011682016040523d82523d5f602084013e610f30565b606091505b50509050806107f55760405162461bcd60e51b815260206004820152600f60248201526e151c985b9cd9995c8819985a5b1959608a1b6044820152606401610754565b60606001805461063b90612221565b610bbb338383611673565b610f97338361137c565b610fb35760405162461bcd60e51b815260040161075490612259565b610fbf84848484611740565b50505050565b610fcd6115c8565b6010805460ff1916911515919091179055565b600c80546105ae90612221565b5f818152600260205260409020546060906001600160a01b031661106b5760405162461bcd60e51b815260206004820152602f60248201527f4552433732314d657461646174613a2055524920717565727920666f72206e6f60448201526e3732bc34b9ba32b73a103a37b5b2b760891b6064820152608401610754565b5f611074611773565b90505f8151116110925760405180602001604052805f8152506110c0565b8061109c84611782565b600c6040516020016110b093929190612418565b6040516020818303038152906040525b9392505050565b60606011805480602002602001604051908101604052809291908181526020015f905b828210156111e0575f8481526020908190206040805160a081018252600586029092018054835260018101546001600160a01b03169383019390935260028301549082015260038201805491929160608401919061114790612221565b80601f016020809104026020016040519081016040528092919081815260200182805461117390612221565b80156111be5780601f10611195576101008083540402835291602001916111be565b820191905f5260205f20905b8154815290600101906020018083116111a157829003601f168201915b50505050508152602001600482015481525050815260200190600101906110ea565b50505050905090565b6111f16115c8565b6001600160a01b0381166112565760405162461bcd60e51b815260206004820152602660248201527f4f776e61626c653a206e6577206f776e657220697320746865207a65726f206160448201526564647265737360d01b6064820152608401610754565b61125f81611622565b50565b5f6001600160e01b031982166380ac58cd60e01b148061129257506001600160e01b03198216635b5e139f60e01b145b8061059b57506301ffc9a760e01b6001600160e01b031983161461059b565b5f818152600260205260409020546001600160a01b031661125f5760405162461bcd60e51b8152602060048201526018602482015277115490cdcc8c4e881a5b9d985b1a59081d1bdad95b88125160421b6044820152606401610754565b5f81815260046020526040902080546001600160a01b0319166001600160a01b038416908117909155819061134382610bbf565b6001600160a01b03167f8c5be1e5ebec7d5bd14f71427d1e84f3dd0314c0f7b2291e5b200ac8c7c3b92560405160405180910390a45050565b5f8061138783610bbf565b9050806001600160a01b0316846001600160a01b031614806113cd57506001600160a01b038082165f9081526005602090815260408083209388168352929052205460ff165b806113f15750836001600160a01b03166113e6846106bc565b6001600160a01b0316145b949350505050565b826001600160a01b031661140c82610bbf565b6001600160a01b0316146114325760405162461bcd60e51b8152600401610754906124b3565b6001600160a01b0382166114945760405162461bcd60e51b8152602060048201526024808201527f4552433732313a207472616e7366657220746f20746865207a65726f206164646044820152637265737360e01b6064820152608401610754565b6114a18383836001611812565b826001600160a01b03166114b482610bbf565b6001600160a01b0316146114da5760405162461bcd60e51b8152600401610754906124b3565b5f81815260046020908152604080832080546001600160a01b03199081169091556001600160a01b038781168086526003855283862080545f1901905590871680865283862080546001019055868652600290945282852080549092168417909155905184937fddf252ad1be2c89b69c2b068fc378daa952ba7f163c4a11628f55a4df523b3ef91a4505050565b610bbb828260405180602001604052805f815250611945565b60605f61158c611773565b90505f8151116115aa5760405180602001604052805f8152506110c0565b806115b484611782565b600d6040516020016110b093929190612418565b600a546001600160a01b03163314610e505760405162461bcd60e51b815260206004820181905260248201527f4f776e61626c653a2063616c6c6572206973206e6f7420746865206f776e65726044820152606401610754565b600a80546001600160a01b038381166001600160a01b0319831681179093556040519116919082907f8be0079c531659141344cd1fd0a4f28419497f9722a3daafe3b4186f6b6457e0905f90a35050565b816001600160a01b0316836001600160a01b0316036116d45760405162461bcd60e51b815260206004820152601960248201527f4552433732313a20617070726f766520746f2063616c6c6572000000000000006044820152606401610754565b6001600160a01b038381165f81815260056020908152604080832094871680845294825291829020805460ff191686151590811790915591519182527f17307eab39ab6107e8899845ad3d59bd9653f200f220920489ca2b5937696c31910160405180910390a3505050565b61174b8484846113f9565b61175784848484611977565b610fbf5760405162461bcd60e51b8152600401610754906124f8565b6060600b805461063b90612221565b60605f61178e83611a74565b60010190505f8167ffffffffffffffff8111156117ad576117ad611f84565b6040519080825280601f01601f1916602001820160405280156117d7576020820181803683370190505b5090508181016020015b5f19016f181899199a1a9b1b9c1cb0b131b232b360811b600a86061a8153600a85049450846117e157509392505050565b60018111156118815760405162461bcd60e51b815260206004820152603560248201527f455243373231456e756d657261626c653a20636f6e7365637574697665207472604482015274185b9cd9995c9cc81b9bdd081cdd5c1c1bdc9d1959605a1b6064820152608401610754565b816001600160a01b0385166118dc576118d781600880545f838152600960205260408120829055600182018355919091527ff3f7a9fe364faab93b216da50a3214154f22a0a2b415b23a84c8169e8b636ee30155565b6118ff565b836001600160a01b0316856001600160a01b0316146118ff576118ff8582611b4b565b6001600160a01b03841661191b5761191681611be4565b61193e565b846001600160a01b0316846001600160a01b03161461193e5761193e8482611c8b565b5050505050565b61194f8383611ccd565b61195b5f848484611977565b6107f55760405162461bcd60e51b8152600401610754906124f8565b5f6001600160a01b0384163b15611a6957604051630a85bd0160e11b81526001600160a01b0385169063150b7a02906119ba90339089908890889060040161254a565b6020604051808303815f875af19250505080156119f4575060408051601f3d908101601f191682019092526119f191810190612586565b60015b611a4f573d808015611a21576040519150601f19603f3d011682016040523d82523d5f602084013e611a26565b606091505b5080515f03611a475760405162461bcd60e51b8152600401610754906124f8565b805181602001fd5b6001600160e01b031916630a85bd0160e11b1490506113f1565b506001949350505050565b5f8072184f03e93ff9f4daa797ed6e38ed64bf6a1f0160401b8310611ab25772184f03e93ff9f4daa797ed6e38ed64bf6a1f0160401b830492506040015b6d04ee2d6d415b85acef81000000008310611ade576d04ee2d6d415b85acef8100000000830492506020015b662386f26fc100008310611afc57662386f26fc10000830492506010015b6305f5e1008310611b14576305f5e100830492506008015b6127108310611b2857612710830492506004015b60648310611b3a576064830492506002015b600a831061059b5760010192915050565b5f6001611b5784610dbb565b611b619190612405565b5f83815260076020526040902054909150808214611bb2576001600160a01b0384165f9081526006602090815260408083208584528252808320548484528184208190558352600790915290208190555b505f9182526007602090815260408084208490556001600160a01b039094168352600681528383209183525290812055565b6008545f90611bf590600190612405565b5f8381526009602052604081205460088054939450909284908110611c1c57611c1c6122a6565b905f5260205f20015490508060088381548110611c3b57611c3b6122a6565b5f918252602080832090910192909255828152600990915260408082208490558582528120556008805480611c7257611c726125a1565b600190038181905f5260205f20015f9055905550505050565b5f611c9583610dbb565b6001600160a01b039093165f908152600660209081526040808320868452825280832085905593825260079052919091209190915550565b6001600160a01b038216611d235760405162461bcd60e51b815260206004820181905260248201527f4552433732313a206d696e7420746f20746865207a65726f20616464726573736044820152606401610754565b5f818152600260205260409020546001600160a01b031615611d875760405162461bcd60e51b815260206004820152601c60248201527f4552433732313a20746f6b656e20616c7265616479206d696e746564000000006044820152606401610754565b611d945f83836001611812565b5f818152600260205260409020546001600160a01b031615611df85760405162461bcd60e51b815260206004820152601c60248201527f4552433732313a20746f6b656e20616c7265616479206d696e746564000000006044820152606401610754565b6001600160a01b0382165f81815260036020908152604080832080546001019055848352600290915280822080546001600160a01b0319168417905551839291907fddf252ad1be2c89b69c2b068fc378daa952ba7f163c4a11628f55a4df523b3ef908290a45050565b6001600160e01b03198116811461125f575f80fd5b5f60208284031215611e87575f80fd5b81356110c081611e62565b5f5b83811015611eac578181015183820152602001611e94565b50505f910152565b5f8151808452611ecb816020860160208601611e92565b601f01601f19169290920160200192915050565b602081525f6110c06020830184611eb4565b5f60208284031215611f01575f80fd5b5035919050565b80356001600160a01b0381168114611f1e575f80fd5b919050565b5f8060408385031215611f34575f80fd5b611f3d83611f08565b946020939093013593505050565b5f805f60608486031215611f5d575f80fd5b611f6684611f08565b9250611f7460208501611f08565b9150604084013590509250925092565b634e487b7160e01b5f52604160045260245ffd5b5f67ffffffffffffffff80841115611fb257611fb2611f84565b604051601f8501601f19908116603f01168101908282118183101715611fda57611fda611f84565b81604052809350858152868686011115611ff2575f80fd5b858560208301375f602087830101525050509392505050565b5f6020828403121561201b575f80fd5b813567ffffffffffffffff811115612031575f80fd5b8201601f81018413612041575f80fd5b6113f184823560208401611f98565b8051825260018060a01b036020820151166020830152604081015160408301525f606082015160a0606085015261208a60a0850182611eb4565b608093840151949093019390935250919050565b602081525f6110c06020830184612050565b5f602082840312156120c0575f80fd5b6110c082611f08565b80358015158114611f1e575f80fd5b5f80604083850312156120e9575f80fd5b6120f283611f08565b9150612100602084016120c9565b90509250929050565b5f805f806080858703121561211c575f80fd5b61212585611f08565b935061213360208601611f08565b925060408501359150606085013567ffffffffffffffff811115612155575f80fd5b8501601f81018713612165575f80fd5b61217487823560208401611f98565b91505092959194509250565b5f60208284031215612190575f80fd5b6110c0826120c9565b5f602080830181845280855180835260408601915060408160051b87010192508387015f5b828110156121ec57603f198886030184526121da858351612050565b945092850192908501906001016121be565b5092979650505050505050565b5f806040838503121561220a575f80fd5b61221383611f08565b915061210060208401611f08565b600181811c9082168061223557607f821691505b60208210810361225357634e487b7160e01b5f52602260045260245ffd5b50919050565b6020808252602d908201527f4552433732313a2063616c6c6572206973206e6f7420746f6b656e206f776e6560408201526c1c881bdc88185c1c1c9bdd9959609a1b606082015260800190565b634e487b7160e01b5f52603260045260245ffd5b634e487b7160e01b5f52601160045260245ffd5b8082018082111561059b5761059b6122ba565b601f8211156107f5575f81815260208120601f850160051c810160208610156123075750805b601f850160051c820191505b8181101561232657828155600101612313565b505050505050565b815167ffffffffffffffff81111561234857612348611f84565b61235c816123568454612221565b846122e1565b602080601f83116001811461238f575f84156123785750858301515b5f19600386901b1c1916600185901b178555612326565b5f85815260208120601f198616915b828110156123bd5788860151825594840194600190910190840161239e565b50858210156123da57878501515f19600388901b60f8161c191681555b5050505050600190811b01905550565b5f82516123fb818460208701611e92565b9190910192915050565b8181038181111561059b5761059b6122ba565b5f8451602061242a8285838a01611e92565b85519184019161243d8184848a01611e92565b85549201915f9061244d81612221565b60018281168015612465576001811461247a576124a3565b60ff19841687528215158302870194506124a3565b895f52855f205f5b8481101561249b57815489820152908301908701612482565b505082870194505b50929a9950505050505050505050565b60208082526025908201527f4552433732313a207472616e736665722066726f6d20696e636f72726563742060408201526437bbb732b960d91b606082015260800190565b60208082526032908201527f4552433732313a207472616e7366657220746f206e6f6e20455243373231526560408201527131b2b4bb32b91034b6b83632b6b2b73a32b960711b606082015260800190565b6001600160a01b03858116825284166020820152604081018390526080606082018190525f9061257c90830184611eb4565b9695505050505050565b5f60208284031215612596575f80fd5b81516110c081611e62565b634e487b7160e01b5f52603160045260245ffdfea26469706673582212203f47db227af9eaa8a1cc1fbc267da83fb1e9bb2d4fa3c8b0ad44051a194a8f0164736f6c63430008140033",
  "linkReferences": {},
  "deployedLinkReferences": {}
}